{
  "contractName": "Campaign",
  "abi": [
    {
      "constant": true,
      "inputs": [
        {
          "name": "",
          "type": "address"
        }
      ],
      "name": "approvers",
      "outputs": [
        {
          "name": "",
          "type": "bool"
        }
      ],
      "payable": false,
      "stateMutability": "view",
      "type": "function"
    },
    {
      "constant": true,
      "inputs": [],
      "name": "manager",
      "outputs": [
        {
          "name": "",
          "type": "address"
        }
      ],
      "payable": false,
      "stateMutability": "view",
      "type": "function"
    },
    {
      "constant": true,
      "inputs": [
        {
          "name": "",
          "type": "uint256"
        }
      ],
      "name": "requests",
      "outputs": [
        {
          "name": "description",
          "type": "string"
        },
        {
          "name": "value",
          "type": "uint256"
        },
        {
          "name": "recipient",
          "type": "address"
        },
        {
          "name": "complete",
          "type": "bool"
        },
        {
          "name": "approvalCount",
          "type": "uint256"
        }
      ],
      "payable": false,
      "stateMutability": "view",
      "type": "function"
    },
    {
      "constant": true,
      "inputs": [],
      "name": "approversCount",
      "outputs": [
        {
          "name": "",
          "type": "uint256"
        }
      ],
      "payable": false,
      "stateMutability": "view",
      "type": "function"
    },
    {
      "constant": true,
      "inputs": [],
      "name": "minimumContribution",
      "outputs": [
        {
          "name": "",
          "type": "uint256"
        }
      ],
      "payable": false,
      "stateMutability": "view",
      "type": "function"
    },
    {
      "inputs": [
        {
          "name": "a",
          "type": "uint256"
        }
      ],
      "payable": false,
      "stateMutability": "nonpayable",
      "type": "constructor"
    },
    {
      "constant": false,
      "inputs": [],
      "name": "contribute",
      "outputs": [],
      "payable": true,
      "stateMutability": "payable",
      "type": "function"
    },
    {
      "constant": false,
      "inputs": [
        {
          "name": "description",
          "type": "string"
        },
        {
          "name": "value",
          "type": "uint256"
        },
        {
          "name": "recipient",
          "type": "address"
        }
      ],
      "name": "createRequest",
      "outputs": [],
      "payable": false,
      "stateMutability": "nonpayable",
      "type": "function"
    },
    {
      "constant": false,
      "inputs": [
        {
          "name": "index",
          "type": "uint256"
        }
      ],
      "name": "approveRequest",
      "outputs": [],
      "payable": false,
      "stateMutability": "nonpayable",
      "type": "function"
    },
    {
      "constant": false,
      "inputs": [
        {
          "name": "index",
          "type": "uint256"
        }
      ],
      "name": "finalizeRequest",
      "outputs": [],
      "payable": false,
      "stateMutability": "nonpayable",
      "type": "function"
    },
    {
      "constant": true,
      "inputs": [],
      "name": "getRequestsCount",
      "outputs": [
        {
          "name": "",
          "type": "uint256"
        }
      ],
      "payable": false,
      "stateMutability": "view",
      "type": "function"
    }
  ],
  "bytecode": "0x608060405234801561001057600080fd5b50604051602080610bf28339810180604052602081101561003057600080fd5b810190808051906020019092919050505033600160006101000a81548173ffffffffffffffffffffffffffffffffffffffff021916908373ffffffffffffffffffffffffffffffffffffffff1602179055508060028190555050610b59806100996000396000f3fe60806040526004361061009e576000357c01000000000000000000000000000000000000000000000000000000009004806303441006146100a35780630a144391146100de5780633410452a14610147578063481c6a751461017257806381d12c58146101c957806382fde093146102c95780638a9cfd55146102f4578063937e09b1146103e6578063d7bb99ba14610411578063d7d1bbdb1461041b575b600080fd5b3480156100af57600080fd5b506100dc600480360360208110156100c657600080fd5b8101908080359060200190929190505050610456565b005b3480156100ea57600080fd5b5061012d6004803603602081101561010157600080fd5b81019080803573ffffffffffffffffffffffffffffffffffffffff1690602001909291905050506105a0565b604051808215151515815260200191505060405180910390f35b34801561015357600080fd5b5061015c6105c0565b6040518082815260200191505060405180910390f35b34801561017e57600080fd5b506101876105cc565b604051808273ffffffffffffffffffffffffffffffffffffffff1673ffffffffffffffffffffffffffffffffffffffff16815260200191505060405180910390f35b3480156101d557600080fd5b50610202600480360360208110156101ec57600080fd5b81019080803590602001909291905050506105f2565b60405180806020018681526020018573ffffffffffffffffffffffffffffffffffffffff1673ffffffffffffffffffffffffffffffffffffffff16815260200184151515158152602001838152602001828103825287818151815260200191508051906020019080838360005b8381101561028a57808201518184015260208101905061026f565b50505050905090810190601f1680156102b75780820380516001836020036101000a031916815260200191505b50965050505050505060405180910390f35b3480156102d557600080fd5b506102de6106fc565b6040518082815260200191505060405180910390f35b34801561030057600080fd5b506103e46004803603606081101561031757600080fd5b810190808035906020019064010000000081111561033457600080fd5b82018360208201111561034657600080fd5b8035906020019184600183028401116401000000008311171561036857600080fd5b91908080601f016020809104026020016040519081016040528093929190818152602001838380828437600081840152601f19601f82011690508083019250505050505050919291929080359060200190929190803573ffffffffffffffffffffffffffffffffffffffff169060200190929190505050610702565b005b3480156103f257600080fd5b506103fb610879565b6040518082815260200191505060405180910390f35b61041961087f565b005b34801561042757600080fd5b506104546004803603602081101561043e57600080fd5b81019080803590602001909291905050506108fb565b005b600160009054906101000a900473ffffffffffffffffffffffffffffffffffffffff1673ffffffffffffffffffffffffffffffffffffffff163373ffffffffffffffffffffffffffffffffffffffff161415156104b257600080fd5b600080828154811015156104c257fe5b9060005260206000209060050201905060026004548115156104e057fe5b0481600301541115156104f257600080fd5b8060020160149054906101000a900460ff1615151561051057600080fd5b8060020160009054906101000a900473ffffffffffffffffffffffffffffffffffffffff1673ffffffffffffffffffffffffffffffffffffffff166108fc82600101549081150290604051600060405180830381858888f1935050505015801561057e573d6000803e3d6000fd5b5060018160020160146101000a81548160ff0219169083151502179055505050565b60036020528060005260406000206000915054906101000a900460ff1681565b60008080549050905090565b600160009054906101000a900473ffffffffffffffffffffffffffffffffffffffff1681565b60008181548110151561060157fe5b9060005260206000209060050201600091509050806000018054600181600116156101000203166002900480601f0160208091040260200160405190810160405280929190818152602001828054600181600116156101000203166002900480156106ad5780601f10610682576101008083540402835291602001916106ad565b820191906000526020600020905b81548152906001019060200180831161069057829003601f168201915b5050505050908060010154908060020160009054906101000a900473ffffffffffffffffffffffffffffffffffffffff16908060020160149054906101000a900460ff16908060030154905085565b60045481565b600160009054906101000a900473ffffffffffffffffffffffffffffffffffffffff1673ffffffffffffffffffffffffffffffffffffffff163373ffffffffffffffffffffffffffffffffffffffff1614151561075e57600080fd5b610766610a40565b60a0604051908101604052808581526020018481526020018373ffffffffffffffffffffffffffffffffffffffff168152602001600015158152602001600081525090506000819080600181540180825580915050906001820390600052602060002090600502016000909192909190915060008201518160000190805190602001906107f4929190610a88565b506020820151816001015560408201518160020160006101000a81548173ffffffffffffffffffffffffffffffffffffffff021916908373ffffffffffffffffffffffffffffffffffffffff16021790555060608201518160020160146101000a81548160ff0219169083151502179055506080820151816003015550505050505050565b60025481565b6002543411151561088f57600080fd5b6001600360003373ffffffffffffffffffffffffffffffffffffffff1673ffffffffffffffffffffffffffffffffffffffff16815260200190815260200160002060006101000a81548160ff021916908315150217905550600460008154809291906001019190505550565b6000808281548110151561090b57fe5b90600052602060002090600502019050600360003373ffffffffffffffffffffffffffffffffffffffff1673ffffffffffffffffffffffffffffffffffffffff16815260200190815260200160002060009054906101000a900460ff16151561097357600080fd5b8060040160003373ffffffffffffffffffffffffffffffffffffffff1673ffffffffffffffffffffffffffffffffffffffff16815260200190815260200160002060009054906101000a900460ff161515156109ce57600080fd5b60018160040160003373ffffffffffffffffffffffffffffffffffffffff1673ffffffffffffffffffffffffffffffffffffffff16815260200190815260200160002060006101000a81548160ff02191690831515021790555080600301600081548092919060010191905055505050565b60a0604051908101604052806060815260200160008152602001600073ffffffffffffffffffffffffffffffffffffffff168152602001600015158152602001600081525090565b828054600181600116156101000203166002900490600052602060002090601f016020900481019282601f10610ac957805160ff1916838001178555610af7565b82800160010185558215610af7579182015b82811115610af6578251825591602001919060010190610adb565b5b509050610b049190610b08565b5090565b610b2a91905b80821115610b26576000816000905550600101610b0e565b5090565b9056fea165627a7a723058200ea60dbfc4c0302f68450fd68fdda08874477ec62965b57b8bf31b0a9dece4840029",
  "source": "pragma solidity ^0.5.1;\r\n\r\ncontract Campaign {\r\n  \r\n  struct Request{\r\n      string description;\r\n      uint value;\r\n      address payable recipient;\r\n      bool complete;\r\n      uint approvalCount;\r\n      mapping(address=>bool)approvals;\r\n  }\r\n\r\n\r\n\r\n    Request[] public requests;\r\n    address public manager;\r\n    uint public minimumContribution;\r\n    mapping(address=>bool) public approvers;\r\n    uint public approversCount;\r\n\r\n\r\nmodifier restricted(){\r\n    require(msg.sender==manager);\r\n    _;\r\n}\r\n\r\n\r\nconstructor (uint a) public {\r\n    manager=msg.sender;\r\n    \r\n    minimumContribution=a;\r\n}\r\n\r\nfunction contribute() public payable {\r\n    require (msg.value>minimumContribution);\r\n    approvers[msg.sender]=true;\r\n    approversCount++;\r\n}\r\n\r\nfunction createRequest(string memory description,uint value,address payable recipient) public restricted{\r\n\r\nRequest memory newRequest=Request({\r\n\r\n    description:description,\r\n    value:value,\r\n    recipient:recipient,\r\n    complete:false,\r\n    approvalCount:0\r\n});\r\n\r\nrequests.push(newRequest);\r\n\r\n}\r\n\r\nfunction approveRequest(uint index) public{\r\n\r\n   Request storage request=requests[index];\r\n    require(approvers[msg.sender]);\r\n    require(!request.approvals[msg.sender]);\r\n\r\n    request.approvals[msg.sender]=true;\r\n    request.approvalCount++;\r\n}\r\n\r\nfunction finalizeRequest(uint index) public restricted{\r\n\r\n    Request storage request=requests[index];\r\n\r\n    require(request.approvalCount>(approversCount /2 ));\r\n    require(!request.complete);\r\n    request.recipient.transfer(request.value);\r\n    request.complete=true;\r\n}\r\n function getRequestsCount() public view returns (uint256){\r\n     return requests.length;\r\n }\r\n\r\n}",
  "sourcePath": "C:\\Users\\aryan\\OneDrive\\Desktop\\New folder\\contracts\\campaign.sol",
  "compiler": {
    "name": "solc",
    "version": "0.5.1+commit.c8a2cb62.Emscripten.clang"
  },
  "schemaVersion": "3.4.5",
  "updatedAt": "2022-02-20T06:20:06.371Z",
  "networkType": "ethereum",
  "devdoc": {
    "methods": {}
  },
  "userdoc": {
    "methods": {}
  }
}